{
  "contractName": "FacultyRegistry",
  "abi": [
    {
      "inputs": [
        {
          "internalType": "address",
          "name": "",
          "type": "address"
        }
      ],
      "name": "faculties",
      "outputs": [
        {
          "internalType": "string",
          "name": "name",
          "type": "string"
        },
        {
          "internalType": "address",
          "name": "walletId",
          "type": "address"
        },
        {
          "internalType": "bytes32",
          "name": "passwordHash",
          "type": "bytes32"
        },
        {
          "internalType": "uint256",
          "name": "numSubjects",
          "type": "uint256"
        }
      ],
      "stateMutability": "view",
      "type": "function",
      "constant": true
    },
    {
      "inputs": [
        {
          "internalType": "string",
          "name": "_name",
          "type": "string"
        },
        {
          "internalType": "address",
          "name": "_walletId",
          "type": "address"
        },
        {
          "internalType": "bytes32",
          "name": "_passwordHash",
          "type": "bytes32"
        },
        {
          "internalType": "uint256",
          "name": "_numSubjects",
          "type": "uint256"
        },
        {
          "internalType": "string[]",
          "name": "_selectedBaskets",
          "type": "string[]"
        },
        {
          "internalType": "string[]",
          "name": "_subjectNames",
          "type": "string[]"
        },
        {
          "internalType": "uint256[]",
          "name": "_subjectSemesters",
          "type": "uint256[]"
        }
      ],
      "name": "registerFaculty",
      "outputs": [],
      "stateMutability": "nonpayable",
      "type": "function"
    }
  ],
  "bytecode": "0x608060405234801561001057600080fd5b50610c85806100206000396000f3fe608060405234801561001057600080fd5b50600436106100365760003560e01c80637379ac2e1461003b578063b5fdf25214610057575b600080fd5b61005560048036038101906100509190610724565b61008a565b005b610071600480360381019061006c91906106fb565b6103bc565b6040516100819493929190610908565b60405180910390f35b8573ffffffffffffffffffffffffffffffffffffffff166000808873ffffffffffffffffffffffffffffffffffffffff1673ffffffffffffffffffffffffffffffffffffffff16815260200190815260200160002060010160009054906101000a900473ffffffffffffffffffffffffffffffffffffffff1673ffffffffffffffffffffffffffffffffffffffff16141561015a576040517f08c379a000000000000000000000000000000000000000000000000000000000815260040161015190610974565b60405180910390fd5b82518414801561016a5750815184145b80156101765750805184145b6101b5576040517f08c379a00000000000000000000000000000000000000000000000000000000081526004016101ac90610954565b60405180910390fd5b60008060008873ffffffffffffffffffffffffffffffffffffffff1673ffffffffffffffffffffffffffffffffffffffff16815260200190815260200160002090508781600001908051906020019061020f929190610494565b50868160010160006101000a81548173ffffffffffffffffffffffffffffffffffffffff021916908373ffffffffffffffffffffffffffffffffffffffff16021790555085816002018190555084816003018190555060005b858110156103b1578481815181106102a9577f4e487b7100000000000000000000000000000000000000000000000000000000600052603260045260246000fd5b602002602001015182600401600083815260200190815260200160002090805190602001906102d9929190610494565b50838181518110610313577f4e487b7100000000000000000000000000000000000000000000000000000000600052603260045260246000fd5b60200260200101518260050160008381526020019081526020016000209080519060200190610343929190610494565b5082818151811061037d577f4e487b7100000000000000000000000000000000000000000000000000000000600052603260045260246000fd5b60200260200101518260060160008381526020019081526020016000208190555080806103a990610b23565b915050610268565b505050505050505050565b60006020528060005260406000206000915090508060000180546103df90610af1565b80601f016020809104026020016040519081016040528092919081815260200182805461040b90610af1565b80156104585780601f1061042d57610100808354040283529160200191610458565b820191906000526020600020905b81548152906001019060200180831161043b57829003601f168201915b5050505050908060010160009054906101000a900473ffffffffffffffffffffffffffffffffffffffff16908060020154908060030154905084565b8280546104a090610af1565b90600052602060002090601f0160209004810192826104c25760008555610509565b82601f106104db57805160ff1916838001178555610509565b82800160010185558215610509579182015b828111156105085782518255916020019190600101906104ed565b5b509050610516919061051a565b5090565b5b8082111561053357600081600090555060010161051b565b5090565b600061054a610545846109c5565b610994565b9050808382526020820190508260005b8581101561058a578135850161057088826106bc565b84526020840193506020830192505060018101905061055a565b5050509392505050565b60006105a76105a2846109f1565b610994565b905080838252602082019050828560208602820111156105c657600080fd5b60005b858110156105f657816105dc88826106e6565b8452602084019350602083019250506001810190506105c9565b5050509392505050565b600061061361060e84610a1d565b610994565b90508281526020810184848401111561062b57600080fd5b610636848285610aaf565b509392505050565b60008135905061064d81610c0a565b92915050565b600082601f83011261066457600080fd5b8135610674848260208601610537565b91505092915050565b600082601f83011261068e57600080fd5b813561069e848260208601610594565b91505092915050565b6000813590506106b681610c21565b92915050565b600082601f8301126106cd57600080fd5b81356106dd848260208601610600565b91505092915050565b6000813590506106f581610c38565b92915050565b60006020828403121561070d57600080fd5b600061071b8482850161063e565b91505092915050565b600080600080600080600060e0888a03121561073f57600080fd5b600088013567ffffffffffffffff81111561075957600080fd5b6107658a828b016106bc565b97505060206107768a828b0161063e565b96505060406107878a828b016106a7565b95505060606107988a828b016106e6565b945050608088013567ffffffffffffffff8111156107b557600080fd5b6107c18a828b01610653565b93505060a088013567ffffffffffffffff8111156107de57600080fd5b6107ea8a828b01610653565b92505060c088013567ffffffffffffffff81111561080757600080fd5b6108138a828b0161067d565b91505092959891949750929550565b61082b81610a69565b82525050565b61083a81610a7b565b82525050565b600061084b82610a4d565b6108558185610a58565b9350610865818560208601610abe565b61086e81610bf9565b840191505092915050565b6000610886601a83610a58565b91507f496e76616c6964206e756d626572206f66207375626a656374730000000000006000830152602082019050919050565b60006108c6601a83610a58565b91507f466163756c747920616c726561647920726567697374657265640000000000006000830152602082019050919050565b61090281610aa5565b82525050565b600060808201905081810360008301526109228187610840565b90506109316020830186610822565b61093e6040830185610831565b61094b60608301846108f9565b95945050505050565b6000602082019050818103600083015261096d81610879565b9050919050565b6000602082019050818103600083015261098d816108b9565b9050919050565b6000604051905081810181811067ffffffffffffffff821117156109bb576109ba610bca565b5b8060405250919050565b600067ffffffffffffffff8211156109e0576109df610bca565b5b602082029050602081019050919050565b600067ffffffffffffffff821115610a0c57610a0b610bca565b5b602082029050602081019050919050565b600067ffffffffffffffff821115610a3857610a37610bca565b5b601f19601f8301169050602081019050919050565b600081519050919050565b600082825260208201905092915050565b6000610a7482610a85565b9050919050565b6000819050919050565b600073ffffffffffffffffffffffffffffffffffffffff82169050919050565b6000819050919050565b82818337600083830152505050565b60005b83811015610adc578082015181840152602081019050610ac1565b83811115610aeb576000848401525b50505050565b60006002820490506001821680610b0957607f821691505b60208210811415610b1d57610b1c610b9b565b5b50919050565b6000610b2e82610aa5565b91507fffffffffffffffffffffffffffffffffffffffffffffffffffffffffffffffff821415610b6157610b60610b6c565b5b600182019050919050565b7f4e487b7100000000000000000000000000000000000000000000000000000000600052601160045260246000fd5b7f4e487b7100000000000000000000000000000000000000000000000000000000600052602260045260246000fd5b7f4e487b7100000000000000000000000000000000000000000000000000000000600052604160045260246000fd5b6000601f19601f8301169050919050565b610c1381610a69565b8114610c1e57600080fd5b50565b610c2a81610a7b565b8114610c3557600080fd5b50565b610c4181610aa5565b8114610c4c57600080fd5b5056fea2646970667358221220fc10e7f0336c78b641d9148eafa60dde42821062a357ed1f9439842c32c9d55564736f6c63430008000033",
  "immutableReferences": {},
  "source": "// SPDX-License-Identifier: MIT\npragma solidity ^0.8.0;\n\ncontract FacultyRegistry {\n    struct Faculty {\n        string name;\n        address walletId;\n        bytes32 passwordHash;\n        uint256 numSubjects;\n        mapping(uint256 => string) selectedBaskets;\n        mapping(uint256 => string) subjectNames;\n        mapping(uint256 => uint256) subjectSemesters;\n    }\n\n    mapping(address => Faculty) public faculties;\n\n    function registerFaculty(\n        string memory _name,\n        address _walletId,\n        bytes32 _passwordHash,\n        uint256 _numSubjects,\n        string[] memory _selectedBaskets,\n        string[] memory _subjectNames,\n        uint256[] memory _subjectSemesters\n    ) public {\n        require(faculties[_walletId].walletId != _walletId, \"Faculty already registered\");\n        require(_numSubjects == _selectedBaskets.length && _numSubjects == _subjectNames.length && _numSubjects == _subjectSemesters.length, \"Invalid number of subjects\");\n        \n        Faculty storage faculty = faculties[_walletId];\n        faculty.name = _name;\n        faculty.walletId = _walletId;\n        faculty.passwordHash = _passwordHash;\n        faculty.numSubjects = _numSubjects;\n\n        for (uint256 i = 0; i < _numSubjects; i++) {\n            faculty.selectedBaskets[i] = _selectedBaskets[i];\n            faculty.subjectNames[i] = _subjectNames[i];\n            faculty.subjectSemesters[i] = _subjectSemesters[i];\n        }\n    }\n}",
  "sourcePath": "/Users/bharaths_mac/adminportal/adminpage/src/backend/contracts/FacultyRegistry.sol",
  "compiler": {
    "name": "solc",
    "version": "0.8.0+commit.c7dfd78e.Emscripten.clang"
  },
  "schemaVersion": "3.4.16",
  "updatedAt": "2024-05-17T10:47:11.268Z",
  "networkType": "ethereum",
  "devdoc": {
    "kind": "dev",
    "methods": {},
    "version": 1
  },
  "userdoc": {
    "kind": "user",
    "methods": {},
    "version": 1
  }
}